:020000040800F2
:100000007807002089010008B52200088D2000082B
:10001000B1220008910200089D2B0008000000009A
:10002000000000000000000000000000452500085E
:100030009502000800000000252300080D26000896
:10004000A3010008A3010008A3010008A301000800
:10005000A3010008A3010008A3010008A3010008F0
:10006000A3010008A3010008A3010008A3010008E0
:10007000A3010008A3010008A3010008A3010008D0
:10008000A3010008A3010008A3010008A3010008C0
:10009000A3010008A3010008A3010008A3010008B0
:1000A000A3010008A3010008A3010008A3010008A0
:1000B000A3010008A3010008A3010008A301000890
:1000C000A3010008A3010008A3010008A301000880
:1000D000A3010008B12A0008192B0008A301000899
:1000E000A3010008A3010008A301000800F002F822
:1000F00000F03AF80AA090E8000C82448344AAF188
:100100000107DA4501D100F02FF8AFF2090EBAE885
:100110000F0013F0010F18BFFB1A43F0010318473B
:10012000F430000014310000103A24BF78C878C1C0
:10013000FAD8520724BF30C830C144BF04680C60ED
:10014000704700000023002400250026103A28BF35
:1001500078C1FBD8520728BF30C148BF0B60704739
:100160001FB51FBD10B510BD00F058F81146FFF7C0
:10017000F7FF02F07BFF00F076F803B4FFF7F2FF21
:1001800003BC00F07DF8000009488047094800479B
:10019000FEE7FEE7FEE7FEE7FEE7FEE7FEE7FEE737
:1001A000FEE7FEE704480549054A064B7047000094
:1001B00081260008ED000008780100207807002063
:1001C00078030020780300204FF0000200B51346AA
:1001D00094469646203922BFA0E80C50A0E80C5067
:1001E000B1F12001BFF4F7AF090728BFA0E80C5018
:1001F00048BF0CC05DF804EB890028BF40F8042B11
:1002000008BF704748BF20F8022B11F0804F18BF7D
:1002100000F8012B7047704770477047754600F033
:100220002BF8AE4605006946534620F00700854688
:1002300018B020B5FFF7B6FFBDE820404FF000062C
:100240004FF000074FF000084FF0000BAC46ACE851
:10025000C009ACE8C009ACE8C009ACE8C00921F0AD
:1002600007018D46704710B50446AFF30080204665
:10027000BDE81040FFF781BF004870471000002024
:1002800001491820ABBEFEE72600020070470000BF
:10029000FFE7FEE77047000081B0EFF3108072B611
:1002A0000090FFE7FEE7000083B0019000208DF88A
:1002B0000300019890F8210002280DD0FFE7019972
:1002C00004208863FFE70199002081F82000FFE700
:1002D00001208DF80B0021E001980168086820F0EA
:1002E0000E00086001980168086820F001000860AD
:1002F0000198C16B026C012090404860FFE70199B2
:10030000012081F82100FFE70199002081F82000F9
:10031000FFE79DF803008DF80B00FFE79DF80B0049
:1003200003B0704780B588B0079000208DF81B009F
:10033000079890F82100022807D0FFE707990420CA
:10034000886301208DF81B0076E007980168086833
:1003500020F00E00086007980168086820F001008E
:100360000860079800680821C4F20201884203D19E
:10037000FFE70120059047E0079800681C21C4F2C0
:100380000201884203D1FFE71020049039E007986A
:1003900000683021C4F20201884204D1FFE74FF423
:1003A000807003902AE0079800684421C4F202019B
:1003B000884204D1FFE74FF4805002901BE0079879
:1003C00000685821C4F20201884204D1FFE74FF4CB
:1003D000803001900CE0079801686C22C4F20202A0
:1003E0004FF08070914208BF4FF480100190FFE7FA
:1003F00001980290FFE702980390FFE703980490AA
:10040000FFE704980590FFE705980421C4F2020174
:1004100008600799012081F82100FFE70799002073
:1004200081F82000FFE70798406B20B1FFE70798AD
:10043000416B8847FFE7FFE79DF81B0008B080BDD0
:1004400080B584B0039000F0C5F902900398019044
:100450000198013048B1FFE740F20700C2F2000006
:100460000178019808440190FFE7FFE700F0B2F936
:100470000299401A0199884201D2FFE7F6E704B0D9
:1004800080BD000090B00F900E9100200D9009905B
:10049000FFE70E9800680D99C840002800F07F81A2
:1004A000FFE70D99012088400C900E9800680C9988
:1004B00008400B900B980C99884240F06C81FFE744
:1004C0000E9840680590002851D0FFE70598012854
:1004D0003AD0FFE7059802283FD0FFE705980328A8
:1004E0005FD0FFE70598112832D0FFE70598122862
:1004F00038D0FFE705980021C1F21101884236D0BB
:10050000FFE705980021C1F2120188422FD0FFE7D2
:1005100005980021C1F22101884228D0FFE7059803
:100520000021C1F22201884221D0FFE70598002175
:10053000C1F2310188421AD0FFE705980021C1F2CB
:100540003201884213D02FE00E98C06809902CE049
:100550000E98C0680430099027E00E98C0680830F3
:10056000099022E00E98C0680C3009901DE00E98AA
:10057000806818B9FFE70420099011E00E988068A0
:10058000012806D1FFE7082009900C980F9908610F
:1005900005E0082009900C980F994861FFE7FFE7F4
:1005A00003E00020099000E0FFE70B98FF2803D844
:1005B000FFE70F98049003E00F9804300490FFE7E2
:1005C000049808900B98FF2804D8FFE70D98800046
:1005D000039006E00D996FF01F0000EB810003907F
:1005E000FFE70398079008980068079A0F21914049
:1005F0008843099991400843089908600E98C0798A
:10060000C006002840F1C680FFE7FFE741F218006E
:10061000C4F20200016841F001010160006800F0CD
:10062000010006900698FFE70D9820F003000821CE
:10063000C4F2010140580A900D9800F003008100B7
:100640000F2000FA01F10A9888430A900F9840F6AB
:100650000001C4F20101884203D1FFE700200290AB
:1006600026E00F9840F60041C4F20101884203D110
:10067000FFE70120019018E00F9841F20001C4F259
:100680000101884203D1FFE7022000900AE00F99A0
:1006900041F20042C4F201020420914208BF03204B
:1006A0000090FFE700980190FFE701980290FFE7B4
:1006B00002980D9901F00301890000FA01F10A98EE
:1006C00008430A900A980D9921F003010822C4F208
:1006D000010288500E988079C00748B1FFE70B9A55
:1006E00040F20041C4F2010108681043086008E0CC
:1006F0000B9A40F20041C4F201010868904308607F
:10070000FFE70E9880798007002809D5FFE70B9A4C
:1007100040F20441C4F2010108681043086008E097
:100720000B9A40F20441C4F201010868904308604A
:10073000FFE70E988079C006002809D5FFE70B9ADD
:1007400040F20841C4F2010108681043086008E063
:100750000B9A40F20841C4F2010108689043086016
:10076000FFE70E9880798006002809D5FFE70B9AED
:1007700040F20C41C4F2010108681043086008E02F
:100780000B9A40F20C41C4F20101086890430860E2
:10079000FFE7FFE7FFE70D9801300D9079E610B015
:1007A0007047000082B00190ADF802108DF8012072
:1007B0009DF8010028B1FFE7BDF80200019908612A
:1007C00005E0BDF80200000401990861FFE702B0EE
:1007D0007047000040F27410C2F2000000687047D9
:1007E00080B584B00290029820B9FFE701208DF80F
:1007F0000F0037E0029801684CF6CC400860029880
:10080000016845F2555008600298016840684860E8
:100810000298016880688860FFF7DCFF0190FFE7BD
:1008200002980068C068800798B1FFE7FFF7D2FF21
:100830000199401A28280BD3FFE702980068C06886
:10084000800720B1FFE703208DF80F000AE0FFE7E3
:10085000E6E7029801684AF6AA20086000208DF8B1
:100860000F00FFE79DF80F0004B080BD81B000903D
:10087000009801684AF6AA200860002001B070477D
:1008800040F20700C2F20000027840F27411C2F296
:1008900000010868104408607047000080B542F20B
:1008A0000001C4F20201086840F010000860032053
:1008B00000F02AF90F2000F005F800F0C5F800203C
:1008C00080BD000080B582B0009040F20000C2F20E
:1008D0000000006840F20701C2F200010A784FF4FC
:1008E0007A71B1FBF2F1B0FBF1F000F01BFE20B128
:1008F000FFE701208DF8070018E000980F280DD8B9
:10090000FFE700994FF0FF30002200F0E3F8009875
:1009100040F20801C2F20001086003E001208DF8F6
:10092000070003E000208DF80700FFE79DF80700AF
:1009300002B080BD80B584B002900191029820B9C8
:10094000FFE701208DF80F004AE0029890F83D0083
:1009500040B9FFE70299002081F83C00029800F0BE
:1009600095FFFFE70299242081F83D000298016875
:10097000C86820F40050C860029801F071FF029826
:100980000168086920F400600861029801684869FC
:1009900020F02A00486102980168086940F480400C
:1009A000086102980168086920F020000861019A36
:1009B0000298016808691043086102980168C868D4
:1009C00040F40050C860029900200864029A202177
:1009D00082F83D10029A82F83E108DF80F00FFE772
:1009E0009DF80F0004B080BD82B00090FFE7009832
:1009F00090F83C00012804D1FFE702208DF80700A1
:100A00001DE00099012081F83C00FFE7FFE7009915
:100A1000242081F83D0000980168C86840F001007A
:100A2000C8600099202081F83D00FFE70099002070
:100A300081F83C00FFE700208DF80700FFE79DF8F4
:100A4000070002B07047000083B0FFE741F21800D2
:100A5000C4F20200016841F001010160006800F089
:100A6000010002900298FFE7FFE741F21C00C4F288
:100A70000200016841F080510160006800F0805080
:100A800001900198FFE7FFE70421C4F20101086823
:100A90000090009820F0E0600090009840F0007016
:100AA000009000980860FFE703B0704780B582B0FF
:100AB0008DF807009DF9070002F072F802B080BDC2
:100AC00080B582B08DF807009DF9070002F084F828
:100AD00002B080BD80B586B08DF8170004910392F6
:100AE0000020029002F090F802909DF9170001900A
:100AF00002980499039A01F0DFFB0146019802F085
:100B00008BF806B080BD000080B582B001900198DE
:100B100002F0A4F802B080BD80B584B002900191CB
:100B2000029820B9FFE701208DF80F001BE1019822
:100B300042F20001C4F20201096801F00701884293
:100B400016D9FFE742F20000C4F20200016821F06A
:100B50000701019A11430160006800F00700019944
:100B6000884204D0FFE701208DF80F00FBE0FFE78B
:100B700002980078800700282AD5FFE702980078BD
:100B80004007002809D5FFE741F20401C4F2020141
:100B9000086840F4E0600860FFE70298007800070A
:100BA000002809D5FFE741F20401C4F202010868F8
:100BB00040F460500860FFE741F20401C4F2020112
:100BC000086820F0F000029A926810430860FFE77E
:100BD00002980078C007002860D0FFE702984068BC
:100BE00001280ED1FFE741F20000C4F202000068C4
:100BF0008003002804D4FFE701208DF80F00B2E045
:100C000021E00298406802280ED1FFE741F200007F
:100C1000C4F2020000688001002804D4FFE701202C
:100C20008DF80F009FE00DE041F20000C4F20200D9
:100C300000688007002804D4FFE701208DF80F002A
:100C400091E0FFE7FFE741F20401C4F20201086806
:100C500020F00300029A526810430860FFF7BAFDC3
:100C60000090FFE741F20400C4F20200006800F0C7
:100C70000C0002994968B0EB810F0ED0FFE7FFF737
:100C8000A9FD0099401A41F28931884204D3FFE757
:100C900003208DF80F0066E0E4E7FFE7019842F2D9
:100CA0000001C4F20201096801F00701884216D26E
:100CB000FFE742F20000C4F20200016821F00701E0
:100CC000019A11430160006800F007000199884211
:100CD00004D0FFE701208DF80F0044E0FFE7029801
:100CE0000078400700280CD5FFE741F20401C4F268
:100CF0000201086820F4E060029AD268104308609C
:100D0000FFE702980078000700280DD5FFE741F2C1
:100D10000401C4F20201086820F46050029A1269CA
:100D200040EAC2000860FFE700F04CF841F204011D
:100D3000C4F202010968C9B20A0943F2FA11C0F605
:100D40000001895CC84040F20001C2F20001086065
:100D500040F20800C2F200000068FFF7B3FD002077
:100D60008DF80F00FFE79DF80F0004B080BD000074
:100D700040F20000C2F200000068704780B5FFF743
:100D8000F7FF41F20401C4F202010968C1F3022233
:100D900043F20A21C0F60001895CC84080BD000012
:100DA00080B5FFF7E5FF41F20401C4F202010968D2
:100DB000C1F3C22243F20A21C0F60001895CC84097
:100DC00080BD00008BB040F60E70C1F210000A909A
:100DD00040F60A30C0F60C50099040F20670C0F69A
:100DE0000810089040F20230C0F20450079040F220
:100DF0000120ADF81A0000200590049003900290A5
:100E0000019041F20400C4F20200006805900598C8
:100E100000F00C0001460091E0B3FFE700980428C1
:100E200004D0FFE70098082806D034E041F2002003
:100E3000C0F27A00019034E00598C0F3834107A81E
:100E4000405C02909DF81600C007C0B1FFE741F278
:100E50000400C4F20200006800F400310DF11A0031
:100E600040EA514000780490029841F20021C0F21B
:100E70007A0148430499B0FBF1F0039007E002982F
:100E800040F60011C0F23D0148430390FFE703988C
:100E9000019006E0FFE741F20020C0F27A000190E5
:100EA000FFE701980BB0704780B586B004900498B6
:100EB00020B9FFE701208DF817002EE30498007891
:100EC000C007002800F0AE80FFE741F20400C4F242
:100ED0000200006800F00C00042813D0FFE741F284
:100EE0000400C4F20200006800F00C0008281BD1C6
:100EF000FFE741F20400C4F202000068C0030028CA
:100F000012D5FFE741F20000C4F20200006880033E
:100F1000002808D5FFE70498406820B9FFE70120C2
:100F20008DF81700F9E27CE0FFE704984068B0F51F
:100F3000803F09D1FFE741F20001C4F202010868D5
:100F400040F48030086032E00498406868B9FFE7F8
:100F500041F20001C4F20201086820F48030086008
:100F6000086820F48020086020E004984068B0F50C
:100F7000A02F0DD1FFE741F20001C4F20201086881
:100F800040F480200860086840F4803008600CE07D
:100F900041F20001C4F20201086820F480300860C8
:100FA000086820F480200860FFE7FFE7FFE7FFE71D
:100FB00004984068D0B1FFE7FFF70CFC0390FFE70F
:100FC00041F20000C4F202000068800300280CD443
:100FD000FFE7FFF7FFFB0399401A652804D3FFE7FB
:100FE00003208DF8170098E2EAE719E0FFF7F2FB1B
:100FF0000390FFE741F20000C4F2020000688003A2
:1010000000280CD5FFE7FFF7E5FB0399401A652898
:1010100004D3FFE703208DF817007EE2EAE7FFE73D
:10102000FFE7FFE7049800788007002840F18D80F3
:10103000FFE741F20400C4F20200006810F00C0F58
:1010400013D0FFE741F20400C4F20200006800F090
:101050000C00082829D1FFE741F20400C4F2020085
:101060000068C003002820D4FFE741F20000C4F26A
:10107000020000688007002809D5FFE7049800698E
:10108000012804D0FFE701208DF8170045E241F266
:101090000001C4F20201086820F0F800049A5269C5
:1010A00040EAC2000860FFE74EE00498006958B3C8
:1010B000FFE70021C4F2422101200860FFF78AFB0C
:1010C0000390FFE741F20000C4F2020000688007CD
:1010D00000280CD4FFE7FFF77DFB0399401A032893
:1010E00004D3FFE703208DF8170016E2EAE741F288
:1010F0000001C4F20201086820F0F800049A526965
:1011000040EAC20008601EE00021C4F24221002033
:101110000860FFF75FFB0390FFE741F20000C4F2B5
:1011200002000068800700280CD5FFE7FFF752FB9C
:101130000399401A032804D3FFE703208DF8170012
:10114000EBE1EAE7FFE7FFE7FFE704980078000735
:10115000002848D5FFE70498806918B3FFE740F2FC
:101160008041C4F2422101200860FFF733FB039065
:10117000FFE741F22400C4F2020000688007002863
:101180000CD4FFE7FFF726FB0399401A032804D38A
:10119000FFE703208DF81700BFE1EAE7012001F027
:1011A000C3F81FE040F28041C4F2422100200860F1
:1011B000FFF710FB0390FFE741F22400C4F20200A6
:1011C0000068800700280CD5FFE7FFF703FB0399B1
:1011D000401A032804D3FFE703208DF817009CE191
:1011E000EAE7FFE7FFE7049800784007002840F1AE
:1011F000D880FFE700208DF8070041F21C00C4F200
:1012000002000068C000002813D4FFE7FFE741F2A6
:101210001C00C4F20200016841F0805101600068C6
:1012200000F0805000900098FFE701208DF8070043
:10123000FFE747F20000C4F200000068C005002884
:1012400022D4FFE747F20001C4F20001086840F42D
:1012500080700860FFF7BEFA0390FFE747F20000D6
:10126000C4F200000068C00500280CD4FFE7FFF7B7
:10127000B1FA0399401A652804D3FFE703208DF8DB
:1012800017004AE1EAE7FFE7FFE70498C068012892
:1012900009D1FFE741F22001C4F20201086840F0E1
:1012A0000100086031E00498C06868B9FFE741F2C6
:1012B0002001C4F20201086820F0010008600868FB
:1012C00020F0040008601FE00498C06805280DD1D4
:1012D000FFE741F22001C4F20201086840F0040077
:1012E0000860086840F0010008600CE041F220014D
:1012F000C4F20201086820F001000860086820F0CC
:1013000004000860FFE7FFE7FFE7FFE70498C06815
:10131000E0B1FFE7FFF75EFA0390FFE741F220003C
:10132000C4F202000068800700280ED4FFE7FFF730
:1013300051FA0399401A41F28931884204D3FFE7F8
:1013400003208DF81700E8E0E8E71BE0FFF742FA1A
:101350000390FFE741F22000C4F20200006880071A
:1013600000280ED5FFE7FFF735FA0399401A41F23E
:101370008931884204D3FFE703208DF81700CCE0C1
:10138000E8E7FFE79DF80700012809D1FFE741F2F0
:101390001C01C4F20201086820F080500860FFE7D9
:1013A000FFE70498C069002800F0B380FFE741F22E
:1013B0000400C4F20200006800F00C00082800F0ED
:1013C0008280FFE70498C06902285CD1FFE76021B2
:1013D000C4F2422100200860FFF7FCF90390FFE708
:1013E00041F20000C4F202000068800100280CD520
:1013F000FFE7FFF7EFF90399401A032804D3FFE74B
:1014000003208DF8170088E0EAE70498006AB0F539
:10141000803F0CD1FFE741F20401C4F202010868E9
:1014200020F40030049A926810430860FFE741F20C
:101430000401C4F20201086820F47410049B1A6AC3
:101440005B6A1A43104308606021C4F24221012004
:101450000860FFF7BFF90390FFE741F20000C4F214
:1014600002000068800100280CD4FFE7FFF7B2F902
:101470000399401A032804D3FFE703208DF81700CF
:101480004BE0EAE71EE06021C4F242210020086040
:10149000FFF7A0F90390FFE741F20000C4F2020059
:1014A0000068800100280CD5FFE7FFF793F9039946
:1014B000401A032804D3FFE703208DF817002CE01F
:1014C000EAE7FFE724E00498C069012804D1FFE7B8
:1014D00001208DF8170020E041F20400C4F2020060
:1014E00000680290029800F480300499096A8842EA
:1014F00008D1FFE7029800F470100499496A884205
:1015000004D0FFE701208DF8170006E0FFE7FFE7B2
:10151000FFE700208DF81700FFE79DF8170006B0E1
:1015200080BD000080B582B00190019801F044F8C0
:1015300002B080BD82B00190ADF8021002B07047D9
:1015400081B0009001B0704780B588B007900798CF
:1015500000680068069007980068C06805900798C2
:10156000006840690490002003900290069800F003
:101570000F000390039888B9FFE79DF818008006D4
:1015800000280AD5FFE79DF814008006002804D53E
:10159000FFE7079801F0BEF876E1FFE7039800281F
:1015A00000F0B480FFE79DF81000C00738B9FFE7EE
:1015B000BDF8140010F4907F00F0A880FFE79DF8BC
:1015C0001800C00758B1FFE79DF81500C00730B1FB
:1015D000FFE70799086C40F001000864FFE79DF8F9
:1015E0001800400700280BD5FFE79DF81000C00742
:1015F00030B1FFE70799086C40F002000864FFE78C
:101600009DF81800800700280BD5FFE79DF8100013
:10161000C00730B1FFE70799086C40F00400086488
:10162000FFE79DF818000007002811D5FFE79DF897
:1016300014008006002805D4FFE79DF81000C007BD
:1016400030B1FFE70799086C40F008000864FFE735
:101650000798006C002858D0FFE79DF81800800616
:1016600000280AD5FFE79DF814008006002804D55D
:10167000FFE7079801F04EF8FFE707980068406918
:10168000C0F3801002900798006C0007002803D474
:10169000FFE7029888B3FFE7079801F003F807987F
:1016A000006840694006002822D5FFE707980168D6
:1016B000486920F0400048610798806B98B1FFE7C7
:1016C0000798816B42F28560C0F600004863079876
:1016D000806BFEF727FE28B1FFE70798806B416B10
:1016E0008847FFE703E00798FFF72AFFFFE703E0DB
:1016F0000798FFF725FFFFE706E00798FFF720FFB1
:10170000079900200864FFE7FFE7BDE00798006B3A
:10171000012840F09980FFE79DF81800C0060028D6
:1017200040F19280FFE79DF81400C006002840F1C8
:101730008B80FFE7FFE700200190079800680068B2
:10174000019007980068406801900198FFE70798AA
:10175000006840694006002848D5FFE70798806B7D
:1017600000684068ADF80200BDF80200E8B3FFE78A
:10177000BDF802000799898D884236DAFFE7BDF887
:1017800002000799C8850798806B8069202824D0BB
:10179000FFE707980168C86820F48070C860079860
:1017A0000168486920F001004861079801684869AC
:1017B00020F0400048610799202081F83E000799F9
:1017C0000020086307980168C86820F01000C8600E
:1017D0000798806BFEF768FDFFE70798818DC28D43
:1017E000891A89B2FFF7A6FEFFE74DE00799888DB9
:1017F000C98D401AADF800000798C08D18B3FFE7F7
:10180000BDF80000F8B1FFE707980168C86820F448
:101810009070C86007980168486920F0010048612D
:101820000799202081F83E00079900200863079857
:101830000168C86820F01000C8600798BDF8001063
:10184000FFF778FEFFE71FE09DF81800000600286C
:101850000AD5FFE79DF814000006002804D5FFE72D
:10186000079801F08DF80FE09DF818004006002859
:101870000AD5FFE79DF814004006002804D5FFE7CD
:10188000079800F033FFFFE708B080BD80B592B045
:101890001190002010900F900E900D9011980068FC
:1018A00043F60001C4F20101884243D1FFE7FFE79C
:1018B00041F21800C4F20200016841F48041016065
:1018C000006800F480400C900C98FFE7FFE741F2BD
:1018D0001800C4F20200016841F0040101600068D0
:1018E00000F004000B900B98FFE74FF400700D9090
:1018F00002200E900320109040F60000C4F2010078
:1019000005900DA90691FEF7BDFD059806994FF4C7
:1019100080620D92002207920E920F92FEF7B2FDA6
:10192000079A252008901146FFF7D4F80898FFF78A
:10193000C7F84AE01198006844F20041C4F200017F
:10194000884241D1FFE7FFE741F21C00C4F20200E8
:10195000016841F400310160006800F400300A9031
:101960000A98FFE7FFE741F21800C4F2020001689D
:1019700041F004010160006800F00400099009983A
:10198000FFE704200D9002200E900320109040F6F7
:101990000000C4F2010001900DA90291FEF772FD52
:1019A0000198029908220D92002203920E920F9242
:1019B000FEF768FD039A262004901146FFF78AF887
:1019C0000498FFF77DF8FFE7FFE712B080BD000045
:1019D00080B58AB008900791ADF81A2005930020D1
:1019E0000290089890F83E00202840F09B80FFE786
:1019F000079820B1FFE7BDF81A0020B9FFE70120E2
:101A00008DF8270092E0FFE7089890F83C00012845
:101A100004D1FFE702208DF8270087E00899012014
:101A200081F83C00FFE7FFE7089900200864089A66
:101A3000222182F83E1008990863FEF7CBFE02903F
:101A4000BDF81A0008998885BDF81A000899C8855C
:101A500008988068B0F5805F09D1FFE708980069B1
:101A600028B9FFE7002004900798039004E0079846
:101A7000049000200390FFE7FFE70899002081F819
:101A80003C00FFE7FFE70898C08D002842D0FFE741
:101A90000898029B05996A4611602021002200F0F7
:101AA000B9FF20B1FFE703208DF827003EE004983E
:101AB00058B9FFE70898006840686FF35F20039902
:101AC00008800398023003901FE008988068B0F502
:101AD000805F08D0FFE70898806850B9FFE7089852
:101AE000006930B9FFE708980068406804990870F9
:101AF00007E008980068406800F07F0004990870CB
:101B0000FFE7049801300490FFE70899C88D013879
:101B1000C885B8E70899202081F83E0000208DF89C
:101B2000270003E002208DF82700FFE79DF827003B
:101B30000AB080BD80B584B002900191ADF802205A
:101B4000029890F83E00202828D1FFE7019820B1A4
:101B5000FFE7BDF8020020B9FFE701208DF80F0074
:101B600020E0FFE7029890F83C00012804D1FFE74D
:101B700002208DF80F0015E00299012081F83C0049
:101B8000FFE7FFE702990020086302980199BDF87A
:101B9000022000F0C3FE8DF80F0003E002208DF854
:101BA0000F00FFE79DF80F0004B080BD80B584B042
:101BB000039055208DF80B0040F20600C2F20000A1
:101BC000007801460191022809D0FFE70198032817
:101BD00034D0FFE70198042800F0FD803DE140F299
:101BE0006310C2F200000078552819D1FFE740F2D7
:101BF000AC01C2F2000108680130086040F2060141
:101C0000C2F200010320087040F21C10C2F2000072
:101C100040F26311C2F200010122FFF78BFF0CE0DA
:101C200040F20601C2F200010120087040F2CC002F
:101C3000C2F20000FEF71AFEFFE70FE140F28C014E
:101C4000C2F2000108680130086040F26310C2F27D
:101C50000000017840F2A002C2F200021170007888
:101C60000D2819D1FFE740F29401C2F20001086883
:101C70000130086040F20601C2F200010420087041
:101C800040F21C10C2F2000040F26411C2F20001E6
:101C90000522FFF74FFF9DE040F26310C2F2000003
:101CA00000788E281FD1FFE740F28801C2F20001C0
:101CB00008680130086040F20601C2F20001052008
:101CC000087040F21C10C2F2000040F27901C2F22A
:101CD0000001092200F06CF940F26111C2F200012A
:101CE0000120087075E040F26310C2F20000007835
:101CF0007D2814D1FFE740F29001C2F2000108688C
:101D00000130086040F20601C2F2000101200870B3
:101D100040F2CC00C2F20000FEF7A8FD58E040F20D
:101D20006310C2F2000000783C2814D1FFE740F2B3
:101D30009001C2F2000108680130086040F206011B
:101D4000C2F200010120087040F2CC00C2F2000093
:101D5000FEF78CFD3BE040F26310C2F20000007819
:101D6000BA281FD1FFE740F29801C2F200010868CB
:101D70000130086040F20601C2F20001052008703F
:101D800040F21C10C2F2000040F27111C2F20001D8
:101D9000042200F00DF940F26211C2F200010120AC
:101DA000087013E040F29C01C2F2000108680130A3
:101DB000086040F20601C2F200010120087040F202
:101DC000CC00C2F20000FEF751FDFFE7FFE7FFE79E
:101DD000FFE7FFE742E040F26310C2F20000007844
:101DE0000D281ED1FFE740F26410C2F20000027914
:101DF00040F26911C2F200010A710068086040F205
:101E00006011C2F200010120087040F20601C2F226
:101E10000001087040F2CC00C2F20000FEF726FD7F
:101E2000FFE740F26310C2F2000000783C2813D1B3
:101E3000FFE740F2C100C2F2000001F08DF840F26D
:101E40000601C2F200010120087040F2CC00C2F28B
:101E50000000FEF70BFDFFE700E0FFE704B080BDE8
:101E600080B58AB008900791ADF81A20059300203C
:101E70000290089890F83D00202840F09080FFE7FD
:101E8000079820B1FFE7BDF81A0020B9FFE701204D
:101E90008DF8270087E0FFE7089890F83C000128BC
:101EA00004D1FFE702208DF827007CE0089901208B
:101EB00081F83C00FFE7FFE70899002008640899D3
:101EC000212081F83D00FEF785FC0290BDF81A0044
:101ED00008998884BDF81A000899C8840898806811
:101EE000B0F5805F09D1FFE70898006928B9FFE7DE
:101EF000002004900798039004E0079804900020C5
:101F00000390FFE7FFE70899002081F83C00FFE716
:101F1000FFE70898C08C58B3FFE70898029B059923
:101F20006A4611608021002200F074FD20B1FFE7B5
:101F300003208DF8270036E0049858B9FFE703988E
:101F400000886FF35F2008990968486003980230A1
:101F5000039008E00498007808990968486004989C
:101F600001300490FFE70899C88C0138C884D0E795
:101F70000898029B05996A4611604021002200F0F2
:101F800049FD20B1FFE703208DF827000BE00899F9
:101F9000202081F83D0000208DF8270003E002207A
:101FA0008DF82700FFE79DF827000AB080BD0000EC
:101FB00084B002900191ADF80220029890F83D00A3
:101FC00020283ED1FFE7019820B1FFE7BDF80200CD
:101FD00020B9FFE701208DF80F0036E0FFE70298F7
:101FE00090F83C00012804D1FFE702208DF80F0093
:101FF0002BE00299012081F83C00FFE7FFE7019800
:1020000002990862BDF8020002998884BDF80200B6
:102010000299C8840299002008640299212081F85D
:102020003D00FFE70299002081F83C00FFE702989D
:102030000168C86840F08000C86000208DF80F007B
:1020400003E002208DF80F00FFE79DF80F0004B0B9
:102050007047000080B582B0019040F20600C2F2E5
:102060000000007805280DD1FFE740F20601C2F21A
:1020700000010120087040F2CC00C2F20000FEF71F
:10208000F5FB00E0FFE702B080BD0000FFE7FEE7E0
:1020900084B0039002918DF807200020ADF8040071
:1020A00003990A78BDF804101144ADF804108DF8B6
:1020B0000300FFE79DF803009DF80710884210DA3F
:1020C000FFE702989DF80310415CBDF80400084446
:1020D000ADF80400FFE79DF8030001308DF8030020
:1020E000E8E7FFE7BDF80400B0F5807F06DBFFE717
:1020F000BDF80400FF38ADF80400F3E7BDF80400B4
:10210000C0F1FF00ADF804009DF8040004B0704772
:1021100080B590B000200F900E900D900C90FFE7CE
:1021200041F21800C4F20200016841F010010160A0
:10213000006800F010000B900B98FFE7FFE741F2FA
:102140001800C4F20200016841F02001016000683B
:1021500000F020000A900A98FFE7FFE741F218001C
:10216000C4F20200016841F004010160006800F05F
:10217000040009900998FFE7FFE741F21800C4F254
:102180000200016841F008010160006800F00800E9
:1021900008900898FFE741F20000C4F201000290A5
:1021A0004FF40051009100220192FEF7FBFA019AD0
:1021B00040F60000C4F2010006904FF40161039163
:1021C000FEF7F0FA009A019902980C92012204920B
:1021D0000D920E91022105910F910CA90791FEF726
:1021E00051F9DDF80CC0049B059A06980799CDF8C3
:1021F00030C00D930E930F92FEF744F910B080BDDE
:1022000080B540F2CC00C2F2000043F20001C4F2FB
:1022100000010160032141604FF47A718160FEF793
:10222000DFFA18B1FFE7FEF737F8FFE780BD0000DF
:1022300080B582B040F2D800C2F20000019043F6AF
:102240000001C4F2010101604FF496414160002198
:102250008160C16001610C22426181612021FEF731
:1022600069FB18B1FFE7FEF717F8FFE702B080BD82
:1022700080B582B040F21C10C2F20000019044F21E
:102280000041C4F2000101604FF496414160002119
:102290008160C16001610C22426181612021FEF7F1
:1022A00049FB18B1FFE7FDF7F7FFFFE702B080BD7C
:1022B000FFE7FEE7FFE7FEE788B00790069105928B
:1022C000079800F0070004900498C0F10700052863
:1022D00003D3FFE70420019004E00498C0F1070055
:1022E0000190FFE70198039004980430062803D872
:1022F000FFE70020009003E0049803380090FFE718
:102300000098029006980399012202FA01F101391E
:102310000840029B984005999A40013A11400843B1
:1023200008B070477047000082B00190019840F2F9
:102330000001C2F200010968C90844F6D352C1F293
:102340006202A1FB0221890948430090FFE700BF18
:10235000FFE70098411E00910028F8D1FFE702B086
:102360007047000080B588B055208DF81F009DF89B
:102370001F008DF81D008E208DF81E0000208DF8A6
:102380001C000690059040F2D800C2F200000290B6
:10239000FEF72AFB02980DF11D0102220A23FFF726
:1023A0005FFDFFE70020049040F2D800C2F2000079
:1023B0000168096804910068406804900498FFE788
:1023C000FFE740F2D800C2F2000000680068800613
:1023D00000280BD5FFE740F2D800C2F200000068E9
:1023E00040688DF80F009DF80F00EAE740F2D80032
:1023F000C2F2000005A909221E23FFF7E9FA88BBF3
:10240000FFE740F2B401C2F2000108680130086041
:1024100040F27000C2F2000000909DF81C100172A2
:102420000599069A4260016040F27901C2F200010A
:10243000019100F0B1FE009B019A187A40F2B801B8
:10244000C2F20001087218685B684B600860107A7D
:1024500040F2A101C2F200010872106852684A609D
:10246000086007E040F2B001C2F2000108680130E4
:102470000860FFE708B080BD80B586B055208DF8B4
:1024800017009DF817008DF81500BA208DF816007A
:1024900000208DF81400ADF8120040F2D800C2F20E
:1024A00000000190FEF7A0FA01980DF1150102223B
:1024B0000A23FFF7D5FCFFE70020039040F2D80085
:1024C000C2F2000001680968039100684068039047
:1024D0000398FFE7FFE740F2D800C2F2000000686F
:1024E0000068800600280BD5FFE740F2D800C2F252
:1024F0000000006840688DF80B009DF80B00EAE7CB
:1025000040F2D800C2F200000DF1120103221E2396
:10251000FFF75EFA98B9FFE740F26E10C2F20000D2
:102520009DF814108170BDF812100180827840F27D
:102530007111C2F200018A7000880880FFE706B0BE
:1025400080BD00007047000080B586B005908DF812
:10255000131055208DF812009DF812008DF8100010
:102560000D208DF811008DF80F0005999DF81320AE
:102570000DF10F00FFF78CFD8DF80E0040F2D80032
:10258000C2F200000290FEF72FFA029804A902227C
:102590000A230193FFF764FC019B029805999DF8BB
:1025A0001320FFF75DFC019B02980DF10E01012243
:1025B000FFF756FC06B080BD80B582B00090009851
:1025C0000138B0F1807F03D3FFE70120019019E0CB
:1025D000009801384EF21401CEF2000108604FF06D
:1025E000FF300F2100F018FB4EF21801CEF200016F
:1025F000002008604EF21002CEF2000207211160A6
:102600000190FFE7019802B080BD000080B5FEF7A1
:1026100037F980BD80B590B006A800902821FDF75D
:10262000D3FD00980021059104910391029101913D
:102630000A22069201220A9210230B930C92022284
:102640000D920E914FF460110F91FEF72DFC18B111
:10265000FFE7FDF721FEFFE70F2001900221029125
:10266000002003904FF480620492059001A8FEF7C9
:1026700053FA18B1FFE7FDF70FFEFFE710B080BD7A
:102680007047000080B582B001900198406A0090C8
:1026900000990020C8850099C8840098FEF750FF73
:1026A00002B080BD81B0009000980168C86820F435
:1026B0009070C86000980168486920F00100486186
:1026C0000098006B012807D1FFE700980168C868EF
:1026D00020F01000C860FFE70099202081F83E003C
:1026E00000990020086301B07047000080B582B0F7
:1026F000019001980168C86820F04000C860019905
:10270000202081F83D000198FFF7A4FC002002B0D2
:1027100080BD000080B586B00490049890F83E001B
:10272000222840F09480FFE704988068B0F5805F2D
:1027300015D1FFE70498006988B9FFE700200390EE
:102740000498806A02900498006840686FF35F20E4
:10275000029908800499886A0230886225E004980A
:10276000806A03900020029004988068B0F5805F32
:1027700008D0FFE70498806850B9FFE70498006923
:1027800030B9FFE70498006840680399087007E0D3
:1027900004980068406800F07F0003990870FFE724
:1027A0000499886A01308862FFE70499C88D01386E
:1027B000C8850004002846D1FFE704980168C8686E
:1027C00020F02000C86004980168C86820F4807078
:1027D000C86004980168486920F0010048610499C4
:1027E000202081F83E000498006B012823D1FFE7E8
:1027F00004990020086304980168C86820F010005C
:10280000C860049800680068C00600280ED5FFE77D
:10281000FFE7002001900498006800680190049888
:102820000068406801900198FFE7FFE70498818DF8
:10283000FEF780FE03E00498FFF7B8F9FFE70020F9
:102840008DF8170007E000208DF8170003E0022044
:102850008DF81700FFE79DF8170006B080BD000057
:1028600080B584B0039003980068006920F440505C
:10287000039A1168D26810430861039988680A694D
:10288000496910430843029003980068C06841F208
:102890000C6188430299084303990968C86003984A
:1028A0000068406920F44070039A116892691043EF
:1028B00048610398006843F60001C4F201018842B0
:1028C00004D1FFE7FEF76CFA019003E0FEF756FA39
:1028D0000190FFE7019819214843039A1168526853
:1028E0009200B0FBF2FC48F21F52C5F2EB12ACFBB7
:1028F00002304309642003FB10CC322000EB0C10A3
:10290000A0FB0202F02000EA521000EB0310C2F319
:1029100043121044886004B080BD000083B0029070
:102920000191ADF80220019802998862BDF8020079
:1029300002998885BDF802000299C8850299002095
:1029400008640299222081F83E00FFE702990020E6
:1029500081F83C00FFE702980168C86840F4807085
:10296000C86002980168486940F001004861029817
:102970000168C86840F02000C860002003B07047BC
:1029800083B00190019890F83D0021283AD1FFE7EB
:1029900001988068B0F5805F13D1FFE70198006966
:1029A00078B9FFE70198006A0090009800886FF3FB
:1029B0005F200199096848600199086A023008623D
:1029C00008E0019A106A411C1162007801990968B7
:1029D0004860FFE70199C88C0138C884000468B9D1
:1029E000FFE701980168C86820F08000C86001987E
:1029F0000168C86840F04000C860FFE700208DF81B
:102A00000B0003E002208DF80B00FFE79DF80B00A0
:102A100003B0704780B586B0DDF820C00490039104
:102A20008DF80B200193FFE7049800680068039974
:102A30000840401AB0FA80F040099DF80B10884217
:102A40002ED1FFE70898013048B3FFE7089840B15E
:102A5000FFE7FDF7BFFE0199401A089988421DD98A
:102A6000FFE704980168C86820F4D070C860049833
:102A70000168486920F0010048610499202081F82C
:102A80003D00049981F83E00FFE70499002081F899
:102A90003C00FFE703208DF8170005E0FFE7C3E7E0
:102AA00000208DF81700FFE79DF8170006B080BDE5
:102AB00080B584B040F2D800C2F200000190FEF769
:102AC00043FD01980068006803909DF80D00C00761
:102AD00050B1FFE740F2D800C2F200000168086878
:102AE00020F48070086014E09DF80C008006002837
:102AF0000ED5FFE740F2D800C2F200000168496835
:102B0000ADF80A100168086820F020000860FFE7AF
:102B1000FFE704B080BD000080B582B040F21C1019
:102B2000C2F20000FEF710FD40F20600C2F2000003
:102B3000007801282FD1FFE740F21C10C2F20000FC
:102B40000068006801909DF80500C00710B3FFE71A
:102B500040F21C10C2F200000268116821F480717A
:102B6000116001684968ADF8021040F28402C2F2B7
:102B7000000211680131116040F20602C2F2000247
:102B80000221117040F26311C2F200010122FEF72E
:102B9000D1FFFFE7FFE702B080BD0000FFE7FEE7DF
:102BA00081B08DF803009DF90300002812D4FFE7DF
:102BB0009DF9031001F01F02012090404A094EF2D6
:102BC0008011CEF2000141F82200BFF34F8FBFF316
:102BD0006F8FFFE701B0704781B08DF803009DF95A
:102BE000030000280ED4FFE79DF9031001F01F0237
:102BF000012090404A094EF20011CEF2000141F846
:102C00002200FFE701B070474EF60C50CEF20000F4
:102C10000068C0F30220704782B08DF80700009171
:102C20009DF9070000280AD4FFE7009800019DF9EC
:102C300007104EF20042CEF2000288540BE00098DA
:102C400000019DF8071001F00F014EF61452CEF26C
:102C500000028854FFE702B07047000083B0029082
:102C6000029800F0070000904EF60C51CEF20001E1
:102C70000868019001984FF6FF02104001900198FA
:102C8000009A40EA02200022C0F2FA52104301905A
:102C90000198086003B0704782B08DF806009DF877
:102CA0000600023801460091722800F2A6800099C1
:102CB000DFE811F0730077007B007F00A300830042
:102CC000A300A300A300A300A300A300A300A300EC
:102CD00087008B00A300A300A3008F009300A30034
:102CE000A3009700A300A300A300A300A300A300D8
:102CF000A300A300A3009B00A300A300A300A300C4
:102D0000A300A300A300A300A300A300A300A300AB
:102D1000A300A300A300A300A300A300A300A3009B
:102D2000A300A300A300A300A300A300A300A3008B
:102D3000A300A300A300A300A300A300A300A3007B
:102D4000A300A300A300A300A300A300A300A3006B
:102D5000A300A300A300A300A300A300A300A3005B
:102D6000A300A300A300A300A300A300A300A3004B
:102D7000A300A300A300A300A300A300A300A3003B
:102D8000A300A300A300A300A300A300A300A3002B
:102D9000A300A300A300A3009F0017208DF8070045
:102DA0002FE016208DF807002BE018208DF8070083
:102DB00027E019208DF8070023E01A208DF807007E
:102DC0001FE011208DF807001BE012208DF807008E
:102DD00017E010208DF8070013E00F208DF8070092
:102DE0000FE00D208DF807000BE01B208DF8070089
:102DF00007E015208DF8070003E000208DF807009C
:102E0000FFE79DF8070002B07047000082B08DF820
:102E100006009DF806000138014600910B2838D8BD
:102E20000099DFE801F0060A0E12161A1E22262A61
:102E30002E322A208DF807002FE003208DF807009E
:102E40002BE002208DF8070027E006208DF8070010
:102E500023E007208DF807001FE01A208DF80700F7
:102E60001BE009208DF8070017E00A208DF8070005
:102E700013E022208DF807000FE023208DF80700D3
:102E80000BE028208DF8070007E029208DF80700C7
:102E900003E000208DF80700FFE79DF8070002B06F
:102EA0007047000082B08DF806009DF806000D38CE
:102EB000014600910E2846D80099DFE801F0303C29
:102EC0002C281C202438400C08101418340008202A
:102ED0008DF807003BE007208DF8070037E0092058
:102EE0008DF8070033E00A208DF807002FE00B2053
:102EF0008DF807002BE004208DF8070027E005205F
:102F00008DF8070023E006208DF807001FE003205E
:102F10008DF807001BE002208DF8070017E0012064
:102F20008DF8070013E00C208DF807000FE0142047
:102F30008DF807000BE00E208DF8070007E0152044
:102F40008DF8070003E000208DF80700FFE79DF8EB
:102F5000070002B07047000082B00190019800792C
:102F6000014600911E2866D0FFE700982E2848D021
:102F7000FFE700984E2851D0FFE700985E280CD05C
:102F8000FFE700988E282FD0FFE70098BE2811D0C9
:102F9000FFE70098EE281AD05AE040F20401C2F28E
:102FA00000010020087040F20501C2F20001022079
:102FB000087059E040F20401C2F2000100200870DC
:102FC00040F20501C2F20001022008704CE040F21C
:102FD0000401C2F200010320087040F20501C2F2B0
:102FE0000001012008703FE040F20401C2F200013C
:102FF0000420087040F20501C2F2000100200870B0
:1030000032E040F20401C2F200010620087040F2F2
:103010000501C2F200010020087025E040F2040121
:10302000C2F200010720087040F20501C2F200015F
:103030000220087018E040F20401C2F200010A20E8
:10304000087040F20501C2F20001032008700BE095
:1030500040F20401C2F20001FF20087040F20501B5
:10306000C2F200010870FFE702B0704780B586B079
:1030700000200590FDF712FCFFF7CCFAFFF748F8A7
:10308000FFF7D6F8FFF7F4F8FFF7BAF840F60000BC
:10309000C4F201000390102101220492FDF782FB8B
:1030A0000398049A4FF40061FDF77CFB40F21C107A
:1030B000C2F200000268116941F04001116101682B
:1030C000C86840F02000C86040F2D800C2F200009A
:1030D0000168086920F0400008612520FDF7E6FC42
:1030E000FFE740F20600C2F20000007840F2AA01B9
:1030F000C2F20001087040F26010C2F200000078D5
:1031000088B1FFE740F26011C2F2000100200870B0
:1031100040F26910C2F200000521FFF715FA0A20FB
:10312000FDF78EF9FFE740F26110C2F2000000786F
:10313000F0B1FFE740F26110C2F20000002202701D
:1031400041F20000C4F2010001904FF400510291DD
:10315000FDF728FB1E20FDF773F901980299012263
:10316000FDF720FBFFF7FEF80A20FDF769F9FFE7FE
:1031700040F26210C2F20000007860B1FFE740F256
:103180006211C2F2000100200870FFF775F90A20F1
:10319000FDF756F9FFE7A4E780B584B003900291EC
:1031A000039800780821009161F31F1002990870BC
:1031B00003984078FFF770FDFFF774FEFFF726FED7
:1031C000009A029948700299002088700299C8708C
:1031D000029B6021197102994871029988710299C4
:1031E000C8718E208DF8070002990DF10700FEF7D7
:1031F0004FFF0299087204B080BD0000000000007B
:103200000000010203040607080900000000010293
:103210000304000038320008000000201000000005
:10322000280100084832000810000020680700004C
:1032300044010008000000000024F400FFFF010129
:08324000100000000000000076
:04000005080000ED02
:00000001FF
